:020000040000FA
:040000008431122C09
:080008008431102C8A00200055
:1000100035080D3E03188A0A82000034003400348B
:100020000034003400340034003400342F34003401
:100030000034003400340734003407340034003412
:1000400014347F3414347F341434003424342A3488
:100050007F342A3412340034623464340834133464
:100060002334003436344934553422345034003487
:1000700000340534033400340034003400341C34BC
:1000800022344134003400340034413422341C34EE
:1000900000340034143408343E340834143400344A
:1000A000083408343E340834083400340034003452
:1000B000A034603400340034083408340834083480
:1000C00008340034003460346034003400340034C8
:1000D0002034103408340434023400343E345134B3
:1000E000493445343E340034003442347F344034A3
:1000F00000340034423461345134493446340034DD
:100100002134413445344B34313400341834143400
:1001100012347F34103400342734453445344534A8
:10012000393400343C344A344934493430340034AE
:10013000013471340934053403340034363449341D
:100140004934493436340034063449344934293486
:100150001E34003400343634363400340034003475
:100160000034563436340034003400340834143447
:10017000223441340034003414341434143414342C
:10018000143400340034413422341434083400343C
:1001900002340134513409340634003432344934E1
:1001A000593451343E3400347C3412341134123416
:1001B0007C3400347F344934493449343634003493
:1001C0003E34413441344134223400347F344134AC
:1001D000413422341C3400347F34493449344934A6
:1001E000413400347F340934093409340134003493
:1001F0003E344134493449347A3400347F3408344D
:10020000083408347F340034003441347F344134BE
:10021000003400342034403441343F34013400345D
:100220007F34083414342234413400347F34403471
:1002300040344034403400347F3402340C340234CF
:100240007F3400347F340434083410347F34003475
:100250003E344134413441343E3400347F34093437
:1002600009340934063400343E34413451342134E5
:100270005E3400347F340934193429344634003470
:10028000463449344934493431340034013401347A
:100290007F340134013400343F344034403440343E
:1002A0003F3400341F342034403420341F340034B1
:1002B0003F344034383440343F34003463341434F1
:1002C0000834143463340034073408347034083488
:1002D00007340034613451344934453443340034F4
:1002E00000347F34413441340034003455342A34EE
:1002F00055342A34553400340034413441347F3489
:100300000034003404340234013402340434003440
:1003100040344034403440344034003400340134FC
:10032000023404340034003420345434543454340B
:10033000783400347F34483444344434383400341E
:10034000383444344434443420340034383444346D
:10035000443448347F3400343834543454345434BE
:100360001834003408347E34093401340234003443
:100370001834A434A434A4347C3400347F340834D6
:100380000434043478340034003444347D3440344C
:10039000003400344034803484347D3400340034FC
:1003A0007F34103428344434003400340034413471
:1003B0007F344034003400347C3404341834043442
:1003C000783400347C340834043404347834003411
:1003D000383444344434443438340034FC34243421
:1003E0002434243418340034183424342434183495
:1003F000FC3400347C3408340434043408340034CD
:1004000048345434543454342034003404343F34A5
:1004100044344034203400343C34403440342034BC
:100420007C3400341C342034403420341C340034F8
:100430003C344034303440343C3400344434283488
:1004400010342834443400341C34A034A034A03494
:100450007C3400344434643454344C3444340034F4
:100460000034063409340934063482073C345034ED
:100470007234653473347334203445344E34543418
:1004800045345234203474346F342034733474342B
:100490006F3470343E3482075234653474347534AA
:1004A00072346E34203474346F3420344D346134FB
:1004B00069346E3420344D3465346E3475348207BB
:1004C000433475347234723465346E347434203489
:1004D00053346F34753472346334653420344D349E
:1004E00065346E347534820752346534743475342F
:1004F00072346E34203474346F3420344D346134AB
:1005000069346E3420344D3465346E34753482076A
:10051000433475347234723465346E347434203438
:1005200053346F34753472346334653420344D344D
:1005300065346E3475348207413464346A347534FA
:1005400073347434613462346C346534203443342D
:1005500075347234723465346E34743482074334C3
:1005600075347234723465346E34743420345334D8
:1005700069346E346B3420344D3465346E347534E4
:100580008207433475347234723465346E34743493
:100590002034533469346E346B3420344D34653434
:1005A0006E3475348207433461346C346934623498
:1005B00072346134743469346F346E3420344D34A1
:1005C00065346E3475348207433461346C34693475
:1005D000623472346134743469346F346E3420346C
:1005E0004D3465346E347534820744346534623476
:0E05F00075346734203449346E3466346F3409
:100600008207433461347034613463346934743440
:100610007934203428346D344134683429343A3400
:100620008207543469346D3465347234203428348C
:1006300068346F3475347234733429343A34820731
:10064000433475347234723465346E347434203407
:1006500028346D344134293420343A3482075334F9
:10066000653474342034763461346C3475346534D4
:100670002034693473343A34820741344434433487
:100680002034763461346C34753465342034693404
:1006900073343A348207443441344334203476345A
:1006A00061346C34753465342034693473343A34CD
:1006B0008207433475347234723465346E34743462
:1006C000203428346D34413429343A3482074D348F
:1006D0004134203466346134633474346F3472349A
:1006E0002034693473343A348207433475347234B5
:1006F000723465346E3474342034283431344134E7
:1007000029343A34820744346534763469346334A6
:10071000653420345234653473346534743482075C
:100720004D34613469346E3420344D3465346E3464
:10073000753482075334543441345234543445347C
:1007400044348207533441345634453444348207A8
:100750005334543441345234543482075334413482
:100760005634453482072034203420348207203424
:1007700020342030B5000310AB0DAC0DAD0DAE0D27
:100780000310A30DA40DA50DA60D031CCF2B270848
:10079000AB072808AC3D2908AD3D2A08AE3DB50B96
:1007A000BB2B08002030B500A701A801A901AA01B0
:1007B0000310AF0DB00DB10DB20D0310A30DA40DBC
:1007C000A50DA60DA70DA80DA90DAA0D2A082E028C
:1007D000031DF42B29082D02031DF42B28082C02DD
:1007E000031DF42B27082B020319F92B843103185E
:1007F000082C2B08A7022C08031C2C0FA8022D087C
:10080000031C2D0FA9022E08031C2E0FAA022F1461
:100810008331B50BD82B08008A00200037088200EE
:1008200089319D2987302100190570389900FC30E5
:100830009905033024008C003B308E002100951375
:1008400023008C018E0121009D019E019F01043037
:1008500022009000910104309400950120000630A0
:10086000A000F830A1006E30A2008431A20B362C1B
:100870008431A10B332C8431A00B312C21002210A8
:100880005B2C261C502C55303C008F00AA308F006A
:100890000F14210022184E2C8B1308008B17080010
:1008A00022108B1B22148B1355303C008F00AA3072
:1008B0008F000F1008002610412412303D00A000C8
:1008C0001330A100210026148431412421008E160A
:1008D0000E168E150C128C1284318B2C2100A60062
:1008E00005302602031D7D2C05302000D90006307E
:1008F000DA000630DB000830DC0021002608260A7A
:10090000080005305902031D8A2C5008B500510813
:10091000803106280034FF302000DD00DE01DF01D9
:100920008030E0008731962F20002008B9005B0856
:100930006002BA005E083A0284310319A42C03183D
:10094000A42C5C08DF07DE015F08BC003908BD008D
:100950005E088531F22520005B08DE0708002100D3
:100960000E148E1428302400950020309600043098
:10097000920094010800240016142000D301D40131
:1009800010305302A0002730540220045510031DDC
:100990005514D5102400161CD02C20005518D51441
:1009A0002000D51CD92CD30A0319D40A000000005A
:1009B000C02C0800240016152000C801C901103001
:1009C0004802A0002730490220044A10031D4A149F
:1009D000CA102400161DEF2C20004A18CA1420004B
:1009E000CA1CF82CC80A0319C90A00000000DF2C31
:1009F00008002000CC004F1491114C0824009100F5
:100A00002000CD01CE018531911D082DCF10092D7B
:100A1000CF1410304D02A00027304E0220044F1199
:100A2000031D4F15CF15CF184F1DCF11CF1D1E2DF4
:100A3000CD0A0319CE0A00000000032D10304D022C
:100A4000A00027304E022004031D282D4F10322D08
:100A50002400161B2E2D20004F14322D95129516B2
:100A600020004F1020104F18201408008431AF24AC
:100A70002000521086314526AE3086315626D530BC
:100A800086315626803086315626A8308631562645
:100A90003F3086315626A13086315626C830863101
:100AA0005626203086315626003086315626403074
:100AB00086315626D330863156260030863156266A
:100AC0008D3086315626143086315626DA308631FE
:100AD0005626123086315626813086315626AF3062
:100AE00086315626D930863156262530863156260F
:100AF000DB3086315626203086315626A4308631AA
:100B00005626A63086315626863154268531C32591
:100B10002000521086314526AF3086315626863168
:100B2000542E2000D60052108631452621308631C1
:100B300056267F3020005605D800863156267F3055
:100B4000863156262230863156260730200057053A
:100B5000D8008631562607308631562686315426EF
:100B600020005608DE005708A300A401A501A60135
:100B70005C08A700A801A901AA018331B9232000BC
:100B80002B08DF0008002000D7010030912520004D
:100B90005214863145262100C301C7010030863139
:100BA00056262100C70A803047028531031DCE2D0D
:100BB000C30A08304302031DCD2D86315426200080
:100BC000D70100308531912DA600200052108631CA
:100BD0004526813086315626210026088631562644
:100BE0008631542EBB005C08AB00AC01AD01AE01F8
:100BF0003C08A300A401A501A6018331D223200053
:100C00002F08C200D7003B088531912520302000F5
:100C10003D02C000BE01BF014008C400C5018631CD
:100C2000192E5A08C200C3014208BE074308BF3D3F
:100C3000C50A45084402031D112E52144526200002
:100C40005A08C600C70186313A2E3E08D0003F0838
:100C5000D100843181242000C1005D088631031D4C
:100C6000332EFF30C106410856262000BE0A031964
:100C7000BF0AC70A470846028631031D252EFF30EA
:100C80005D06C20056268631542E8431BB2478304E
:100C90008431F92486312000521C512E4030843199
:100CA000F92C00308431F92C8431DA2C2000CB006F
:100CB0008431F92C6208E8006308E9006808220022
:100CC000A000210069082200A1002100EC01842E6F
:100CD000210066086C072000B7000030A100210049
:100CE00067082000213DB800B813380884310C246F
:100CF0002000A00021005F082000B700210060084C
:100D000084310C242100EC0A6C082200200220000F
:100D1000A00022002108200020048631031D682E37
:100D2000080003102000E10DE20DE30DE40D0310B7
:100D3000610D2200CA002000620D2200CB002000BD
:100D4000630D2200CC002000640D2200CD000310B2
:100D5000CA0DCB0DCC0DCD0D4A082000E1072200B5
:100D60004B082000E23D22004C082000E33D220019
:100D70004D082000E43D080001302000E100E201C0
:100D8000E301E4012200C201C30120006408210044
:100D90006F02031DDB2E2000630821006E02031D7D
:100DA000DB2E2000620821006D02031DDB2E2000D7
:100DB000610821006C0222004510031D0318451430
:100DC00000304302031DE62E0A304202C51003190B
:100DD000EB2E031CC51445154518C51C4511451DB2
:100DE000F82E91262200C20A0319C30A8631C52EA5
:100DF000420843048731031D002F0130C200C301A4
:100E0000C203420A0319C30301302000E100E201DA
:100E1000E301E40122004208C6004308C700C801FC
:100E2000C901182F863191262200C80A0319C90A60
:100E3000480846022000A00022004908470220007E
:100E400020048731031D122F30302200C4002100FE
:100E50006F0820006402031D3D2F21006E08200052
:100E60006302031D3D2F21006D0820006202031D57
:100E70003D2F21006C08200061020319412F031847
:100E80005C2F61082100EC0220006208FF002100B5
:100E9000031C7F0FED0220006308FF002100031CEC
:100EA0007F0FEE0220006408FF002100031C7F0F6B
:100EB000EF022200C40A272F220044082000A000CD
:100EC000210068082000B7002100690884310C2443
:100ED0002200420843048731031D002F08005F08E9
:100EE000E2006008E300E401E5015308E80054086B
:100EF000E9006208EC006308ED006408EE00650894
:100F0000EF008631BC2ED300DB00DC01DD01DE0109
:100F10004F08E8005008E9005B08EC005C08ED00B1
:100F20005D08EE005E08EF008631BC2EF330240031
:100F30001E0508389E00FC301E0501389E009E17D5
:100F4000F0302A00100502389000111621000E1111
:100F50002A00911721000C1523000C15FC302100EC
:100F60001E0503389E001E118F301E0520389E007E
:100F700088310328CF004F0D2000A000A00D7C3049
:100F8000A005833021001D052000200421009D00C4
:100F90006118CC2F9E13CD2F9E171D1420006508BD
:100FA0002100DB00DF01DE2F20000530A0008731AB
:100FB000A00BD82F000000002100DF0A5F085B02B1
:100FC000031DD42F9D149D1CE62FE32F1C08D20077
:100FD0001B08D10020000730A0008731A00BEE2FA6
:100FE00021001D1051082000A000210052082000FF
:100FF000A10008002100C30061144308BA2F0D307E
:101000002000E50008002B00920193011014111339
:10101000F330110508389100FC30910591129117B9
:101020009331B82B55309600AA30960095140000E5
:101030000000080053108B1B53148B13510823001E
:101040009100220052082300920015131516151561
:1010500012208831220053182F288B1308008B1779
:10106000080051082300910022005208230092003A
:10107000151315140000000013082200D300080007
:10108000D300D4108B1BD4148B1351082300910070
:1010900022005208230092002200530823009300EC
:1010A0009401220054185728230095125928230030
:1010B0009516151315121515122088312200D41813
:1010C00063288B1308008B170800E8006608EA0005
:1010D0006708EB000310670C2200D0002100660CAB
:1010E0002200CF0004302000A00003102200D00C0A
:1010F000CF0C2000A00B7528031022004F0DA0007C
:10110000500DA1000430FF000310A00DA10DFF0B36
:10111000842820082100E600220021082100E700A1
:101120002200CE01210066082200D10021006708BC
:101130002200D20031202000B6002230840001308D
:10114000850022004E088407200036088000210018
:10115000E60A0319E70A2200CE0A20304E0288313F
:10116000031D92281F3021006A05E600E7012230A6
:10117000840001308500660884076808800022002A
:101180002008D1002108D2001A20220020082100C6
:10119000E600220021082100E7002200CE01210004
:1011A00066082200D100210067082200D2005414F2
:1011B00022308400013085004E0884070008883101
:1011C00040202100E60A0319E70A2200CE0A203057
:1011D0004E028831031DCF2820082100E60022009E
:1011E00021082100E7002200CE012100660822002C
:1011F000D100210067082200D20054102230840060
:10120000013085004E088407000840202100E60ACE
:101210000319E70A2200CE0A20304E028831031D4E
:10122000F528080080304107CB001F30423DCC003C
:101230004B082200D10021004C082200D200883146
:1012400031202100C7000800E10080305B07E20088
:101250001F305C3DE3006208E6006308E7006108B8
:10126000883165282A08C1002B08C20012212100FC
:10127000AD0008003108BF003208C0003F08C100BF
:101280004008C20012212100BA0001303107BF001E
:101290000030031801303207C0003F08C100400889
:1012A000C200893112212100BB0008002A08B100C8
:1012B0002B08B2003A2121003A08AD003B08AE00ED
:1012C0002D082000A00021002E082000A100080009
:1012D0004308D1004408D2005108DB005208DC006A
:1012E0004B082421013021004307D10000300318AE
:1012F00001304407D2005108DB005208DC004C08E2
:1013000089312429200018103F309805CF30180566
:1013100010389800F0309600D83097006430FE0006
:10132000EA01EB01EC01ED012100A21120001110F6
:10133000210011148B170B1708002000111CC42961
:101340001110F0309600D8309700FE037E08031D80
:10135000C4296430FE000130E602031CE702031CCE
:10136000E802031CE902EA0A0319EB0A0319EC0A72
:101370000319ED0A6608670468046904031DC4299B
:101380002100A215200018100900C100200018102B
:101390002100A2112000EA01EB01EC01ED01210086
:1013A00041088A310319032A20001110F0309600F9
:1013B000D83097006430FE0021004108C300C4010A
:1013C000C501C60143082000A300210044082000F5
:1013D000A400210045082000A500210046082000A7
:1013E000A6001030A7000E30A800A901AA01833181
:1013F000B92320002B08E6002C08E7002D08E800A0
:101400002E08E90018140800200018102100A2116D
:101410000800C130210017050E389700171008008A
:101420001714080021001710080064000800430882
:101430002B009200210044082B0093001014101C74
:10144000222A1F2A08002000CA30A000A330A100D1
:101450008A31A10B292A8A31A00B262A20000130CB
:10146000A0008A31A00B322A0000000008002000F2
:101470008E1A3D2A210047103F2A210047142000E0
:101480000E1A452A2100C710472A2100C714471504
:101490004718C71C471120008E19512A2100C71177
:1014A000532A2100C71547164719C71D4712471A67
:1014B0005C2A2000201008002000201408002322AD
:1014C0008A3137228A3120002018692A21004310EE
:1014D0006B2A210043144318702A23228A31602A80
:1014E00008002100471020008E1A7F2A23228A310B
:1014F00020008E1A962A2100C3014714962A0E1A3C
:101500008B2A23228A3120000E1A962A01302100CC
:10151000C3004714962A8E19962A23228A31200066
:101520008E19962A02302100C30047142100471863
:101530009C2A200020109E2A20002014210043080D
:1015400008004308DB004408DC00DD01DE015B0825
:101550002000AB0021005C082000AC0021005D08E9
:101560002000AD0021005E082000AE004030A30046
:101570004230A4000F30A500A6018331D223200001
:101580002F082100CB00200030082100CC002000D3
:1015900031082100CD00200032082100CE004B0888
:1015A0002000A00021004C082000A10008004108F4
:1015B000D3004208D400D501D60120006E082100D6
:1015C000D70020006F082100D800D901DA015308A4
:1015D0002000A300210054082000A4002100550889
:1015E0002000A500210056082000A6002100570871
:1015F0002000A700210058082000A8002100590859
:101600002000A90021005A082000AA008331B92334
:1016100020002B082100C70020002C082100C80052
:1016200020002D082100C90020002E082100CA003A
:10163000E8302000AB000330AC00AD01AE0121006A
:1016400047082000A300210048082000A400210032
:1016500049082000A50021004A082000A600833187
:10166000D22320002F082100C700200030082100CD
:10167000C800200031082100C900200032082100E4
:10168000CA0047082000A000210048082000A1004F
:101690000800C1004B1C4F2B2000DD01522BFF30F6
:1016A0002000DD00210047082000D700210043086A
:1016B0008531912594302100CF000430D0004108BD
:1016C0008731832FCB00511C682B2000DD016B2B51
:1016D000FF302000DD0021004F082000D70021004E
:1016E0004B088531912594302100D3000430D4007B
:1016F0004308DF004408E00087316F2FD1005B1CF6
:10170000842B2000DD01872BFF302000DD0021002D
:1017100053082000D70021005108853191259430CD
:101720002100DF000430E0004308E2004408E30049
:101730004B08E6004C08E70086315A2E2100AA012A
:10174000AB0189315621200020082100A60020008D
:1017500021082100A700033027028B31031DB22B83
:10176000FF3026020319BB2B031CBB2BE830F8000B
:101770000330F900C42BAA01AB01893156212000A6
:101780002008F8002108F90002302100AA00AB016E
:1017900089315621200020082100A60020002108C0
:1017A0002100A700033027028B31031DD92BFF3006
:1017B00026020319E12B031CE12B6430F400F50130
:1017C000F82B0230AA00AB018931562120002008F5
:1017D000F4002108F50079028B31031DF12B740808
:1017E00078020319F82B0318F82B6430F400F50184
:1017F00004302100AA00AB018931562120002008C5
:101800002100A600200021082100A70003302702A4
:101810008C31031D0D2CFF3026020319152C031CDF
:10182000152C6430F600F7012C2C0430AA00AB0113
:101830008931562120002008F6002108F70079029E
:101840008C31031D252C7608780203192C2C0318E3
:101850002C2C6430F600F70106302100AA00AB0101
:10186000893132212100A600183026028C3103195B
:101870003D2C031C3D2CFC01432C0630AA00AB017F
:1018800089313221FC0007302100AA00AB018931E7
:1018900032212100A600183026028C310319542C65
:1018A000031C542CFD0108000730AA00AB0189314C
:1018B0003221FD0008002100AF013F108531C32512
:1018C00012302100C300C4019C30CB0002308038AC
:1018D000CC00D3015B1008308B317E23093021000E
:1018E000C300C4019030CB0003308038CC000130FD
:1018F000D3005B1023308B317E238D3121003F18C4
:10190000C32D1330C300C4016030CB0002308038D7
:10191000CC000230D3005B100A308B317E231130B3
:101920002100C300C401C130CB0002308038CC009C
:101930000330D3005B1011308B317E231030210037
:10194000C300C401E430CB0002308038CC00043046
:10195000D3005B1014308B317E238C312100A21E0A
:10196000C12C0C30C300C4018330CB00033080385D
:10197000CC000630D3005B1023308B317E238D31B9
:10198000452D20006A086B046C046D048D31031929
:10199000452D0F302100C300C4010130CB000330BE
:1019A0008038CC000630D3005B1000308B317E23B2
:1019B0007A082100C1007B08C2008A31D7222000AA
:1019C00020082100B100200021082100B200B3014D
:1019D000B40131082000A300210032082000A40037
:1019E000210033082000A500210034082000A600B3
:1019F0006A08A7006B08A8006C08A9006D08AA0077
:101A00008331B92320002B082100A60020002C08D8
:101A10002100A70020002D082100A80020002E088A
:101A20002100A90010302000AB000E30AC00AD0149
:101A3000AE01210026082000A30021002708200075
:101A4000A400210028082000A5002100290820006A
:101A5000A6008331D22320002F082100A6002000F9
:101A600030082100A700200031082100A800200034
:101A700032082100A9002608C3002708C400063048
:101A8000CF0051105D308B31622321002F088D3142
:101A9000031D5A2D1330C300C4016030CB00023047
:101AA0008038CC000230D3005B140A308B317E23A7
:101AB0008D317F2D2F03031D6D2D1130C300C40107
:101AC000C130CB0002308038CC000330D3005B142F
:101AD00011308B317E238D317F2D02302F02031D7B
:101AE0007F2D1030C300C401E430CB0002308038B9
:101AF000CC000430D3005B1414308B317E238A3148
:101B000071222100AD008D31200020188A2D210086
:101B10003F138C2D21003F173F1B8F2D7F2D8A31C6
:101B20005F2221002D088D31031DAA2D2F08031DD2
:101B30009D2D0230AF008C317D2C2F03031DA22D73
:101B4000AF01A82D02302F02031DA82D0130AF00D8
:101B50008C317D2C2D03031DC02D2F08031DB42DAA
:101B60000130AF008C317D2C2F03031DBA2D0230C4
:101B7000AF00BE2D02302F020319AF018C317D2C36
:101B80003F148C317D2C2F080800AD01B5103511A4
:101B90008531C32512302100C300C4019C30CB0025
:101BA00002308038CC00D3015B1008308B317E23AB
:101BB0008D312100351CF22D7408A6007508A70090
:101BC0007C08AC001330C300C4018830CB00023065
:101BD0008038CC000130D3005B1005308B317E2380
:101BE0008E31062E7608A6007708A7007D08AC0087
:101BF0001130C300C401AF30CB0002308038CC00BC
:101C00000130D3005B100B308B317E23210026087E
:101C1000C1002708C2008A31D722200020082100F5
:101C2000AF00200021082100B0002F08C3003008B9
:101C3000C4000230CF0051105A308B3162235A3029
:101C40002100C3000330C7004B102C088B314923FF
:101C500090312100B51837280E30C300C401203060
:101C6000CB0003308038CC000230D3005B1003304F
:101C70008B317E230E302100C300C4011130CB0014
:101C800003308038CC000330D3005B1003308B313D
:101C90007E2305302100C300C401A830CB000330EF
:101CA0008038CC000430D3005B1032308B317E237F
:101CB00013302100C300C4017430CB0002308038DF
:101CC000CC000530D3005B1005308B317E23210022
:101CD0002D088F31031D222F8E31351DCB2E260866
:101CE000C1002708C2008A31D72220002008210025
:101CF000AF00200021082100B0002F08C3003008E9
:101D0000C4000230CF0051145A308B316223FF30AF
:101D10002000DD0094302100DF000430E0000230BC
:101D2000E200E301B730E60003308038E700863197
:101D30005A268A3171222100AA008E3120002018F3
:101D4000A42E2100B512A62E2100B516B51AA92E73
:101D5000992E2A08031DBA2E27087902031DB22ED8
:101D6000260878020319282E031C282EA60A031918
:101D7000A70A282E2A03031DC62E260827040319A6
:101D8000282EA603260A0319A703282E35118A3107
:101D90005F228E31282E2608C1002708C2008A3112
:101DA000D722200020082100AF00200021082100B8
:101DB000B0002F08C3003008C4000230CF0051101B
:101DC0005A308B31622394302100DF000430E00070
:101DD0000230E200E301B730E60003308038E7006C
:101DE00086315A260E302100C300C4012030CB00BA
:101DF00003308038CC000230D3005B1403308B31C9
:101E00007E238A3171222100AA008F312000201800
:101E10000C2F2100B6110E2F2100B615B619112F67
:101E2000012F2A08031D172F0330AD001E2F2A0390
:101E3000031D1D2F0130AD001E2F35158A315F2285
:101E40008E31282E2D03031DAC2F351D662F5A30E1
:101E5000C3000330C7004B142C088B314923FF30DB
:101E60002000DD0094302100DF000430E00002306B
:101E7000E200E301B730E60003308038E700863146
:101E80005A268A3171222100AA008F3120002018A1
:101E90004C2F210037104E2F210037143718512FA7
:101EA000412F2A08031D5C2F18302C020319A82F7C
:101EB0000318A82FAC0AA82F2A03031D642F2C088F
:101EC0000319A82FAC03A82F3511A82F5A30C3002F
:101ED0000330C7004B102C088B314923943021006C
:101EE000DF000430E0000230E200E301B730E6003A
:101EF00003308038E70086315A260E302100C300B7
:101F0000C4011130CB0003308038CC000330D30043
:101F10005B1403308B317E238A3171222100AA00A9
:101F20008F3120002018972F21003713992F21007F
:101F30003717371B9C2F8C2F2A08031DA12FAD01AB
:101F4000A82F2A03031DA72F0230AD00A82F351597
:101F50008A315F228E31282E02302D029031031DEE
:101F600005280530C300C401A830CB0003308038F9
:101F7000CC000430D3005B1432308B317E238A31A5
:101F800071222100AA008F3120002018CA2F2100C1
:101F9000B811CC2F2100B815B819CF2FBF2F2A08A0
:101FA000031DD62F0130AD00903101282A03031DF7
:101FB000DD2F0330AD00903101280730C300C4018C
:101FC0009A30CB0003308038CC000430D3005B1053
:101FD0002C308B317E2315302100C300C4013630F4
:101FE000CB0002308038CC000530D3005B140030C9
:101FF0008B317E2321002C088931C5212100221537
:10200000B5148A315F229031352803302D02031D2B
:1020100035281330C300C4017430CB00023080383F
:10202000CC000530D3005B1405308B317E238A3120
:1020300071222100AA0090312000201822282100BE
:1020400039102428210039143918272817282A087C
:10205000031D2D280230AD0033282A03031D32282A
:10206000AD013328B5148A315F228E31282E351CFC
:102070006028260874022000A000210027087502AD
:10208000200020040319522821002608F400270804
:10209000F5000230C300C4017408CB007508CC0001
:1020A0008931682121002C087C029031031987288E
:1020B0002C08FC000630DB00DC017C088931242977
:1020C000260876022000A0002100270877022000C1
:1020D00020040319792821002608F6002708F700B4
:1020E0000430C300C4017608CB007708CC008931E6
:1020F000682121002C087D029031031987282C08C3
:10210000FD000730DB00DC017D088931242908004F
:10211000B5013A10BA103A11AA01AB012A08C3005E
:102120002B08C4008A3117222100A601A701220032
:102130000C128C128531C32578082100AD00790876
:10214000AE001230C300C4019C30CB000230803896
:10215000CC00D3015B1008308B317E23103021007E
:10216000C300C401D330CB0002308038CC00013032
:10217000D3005B1005308B317E23923121003A1859
:10218000DD2A0D30C300C4017530CB000330803828
:10219000CC000230D3005B1005308B317E2304303D
:1021A0002100C300C401AE30CB0003308038CC0026
:1021B0000330D3005B1032308B317E23133021008B
:1021C000C300C4014C30CB0002308038CC00043056
:1021D000D3005B1000308B317E2321002608C30022
:1021E0002708C4000230CF0051105A308B316223CF
:1021F000210035089231031D352A9131BA1CF72987
:1022000022000C1621003A19BA123A1DBA160330F0
:102210002702031D0D29FF3026023A130319122944
:10222000031C3A17BA17BA1A3A1FBA1303302B0213
:10223000031D1C29FF302A023B1003192129031C0E
:102240003B14BB14BA1B3B1CBB10BB1C5129AA0A74
:102250000319AB0A2A08C3002B08C4008A311722CD
:102260002000DE30A0000130A1009131A10B362901
:102270009131A00B332902308731FA272000200842
:102280002100A600200021082100A7002E02913184
:10229000031D4C2926082D023A11031D031C3A1573
:1022A00002292A08C3002B08C4008A311722200003
:1022B000DE30A0000130A1009131A10B5D299131E8
:1022C000A00B5A2902308731FA272000200821006C
:1022D000A600200021082100A7002608C300270827
:1022E000C4000230CF0051145A308B316223FF30CA
:1022F0002000DD0094302100DF000430E0000330D6
:10230000E200E301B330E60003308038E7008631B5
:102310005A268A3171222100B10091312000201803
:1023200094292100BB1196292100BB15BB199929BD
:1023300089293108031DBD2903302702031DA22965
:10234000FF3026023B130319A729031C3B17033058
:102350002B02031DAD29FF302A02BB130319B2293A
:10236000031CBB173C143B1BBB1F3C1090313C1C97
:10237000BD28AA0A0319AB0ABD283103031DD629BB
:10238000260827043C1503193C112A082B04BC1508
:102390000319BC113C163C19BC1D3C1290313C1E6B
:1023A000BD28AA032A0A0319AB03BD28BA102200CC
:1023B0000C1221002608AD002708AE002D08C3002E
:1023C0002E08C4008A31A12220002008EE00210836
:1023D000EF0021003A11A601A701AA01AB01C30138
:1023E000C4018A3117228A315F229031BD2894308E
:1023F000DF000430E0000330E200E301B330E60028
:1024000003308038E70086315A260D302100C300A2
:10241000C4017530CB0003308038CC000230D300CB
:102420005B1405308B317E238A3171222100B1008B
:102430009231200020181F2A2100BC12212A2100DD
:10244000BC16BC1A242A142A3108031D2A2A023079
:10245000B500312A3103031D302A0130B500312A7D
:10246000BA148A315F229031BD283503031DAB2A8F
:102470000430C300C401AE30CB0003308038CC0040
:102480000330D3005B1432308B317E23FF302000C9
:10249000DD002030A0008431942492312100BA1C48
:1024A0008B2A2D0878022000A00021002E08790236
:1024B000200020040319692A21002D08F8002E08A5
:1024C000F900C301C4017808CB007908CC00893138
:1024D000682105302100C300C401A230CB000330C5
:1024E0008038CC000330D3005B1032308B317E2338
:1024F00020007F30A0003D30A1002930A2009231A1
:10250000A20B802A9231A10B7D2A9231A00B7B2A4B
:102510002100BA10A72A8A3171222100B10092311C
:1025200020002018962A2100BD11982A2100BD15EF
:10253000BD199B2A8B2A3108031DA02AB501A72AA1
:102540003103031DA62A0230B500A72ABA148A3126
:102550005F229031BD2802303502031DDB2A133083
:10256000C300C4014C30CB0002308038CC000430B2
:10257000D3005B1400308B317E238A31712221001D
:10258000B100923120002018C82A21003E10CA2A2A
:1025900021003E143E18CD2ABD2A3108031DD32A3E
:1025A0000130B500D92A3103031DD82AB501D92A33
:1025B0003A148A315F229031BD28C301C4018A31A7
:1025C000172222000C12080022000C128C1221008B
:1025D00022118A310422F201F30172082100C300A2
:1025E0007308C4008A31172A8531C3250A302100B7
:1025F000C300C401F530CB0002308038CC00D301D9
:102600005B100D308B317E230D302100C300C401DF
:102610005930CB0003308038CC000230D3005B103F
:1026200000308B317E237A082100C1007B08C20074
:102630008A31D722200020082100A600200021088E
:102640002100A7009430D3000430D4002608DF0016
:102650002708E00087316F270D302100C300C40137
:102660002F30CB0003308038CC000430D3005B1017
:1026700000308B317E2394302100D3000430D4000D
:102680007A08DF007B08E00087316F270D302100DA
:10269000C300C4013D30CB0003308038CC0005308E
:1026A000D3005B1000308B317E230D302100C3003E
:1026B000C4014B30CB0003308038CC000630D3004F
:1026C0005B1000308B317E230D302100C300C4012C
:1026D0006730CB0003308038CC000730D3005B106C
:1026E00000308B317E2394302100D3000430D4009D
:1026F00020006E082100DF0020006F082100E000AC
:1027000087316F2F05302000D7004E30853191255D
:1027100094302100D3000430D4007008DF00710829
:10272000E00087316F2720302000A00084319424FE
:1027300020302000A0008431942406302000D700EF
:102740004E308531912594302100D3000430D400DF
:102750007208DF007308E00087316F272030200007
:10276000A0008431942420302000A0008431942CD7
:10277000853136258731FF27893182218A31092227
:10278000210022128A3171222100A1009331200000
:102790002018CD2B21002213CF2B21002217221F1E
:1027A000D82B02302102031DD82B22168A315F223A
:1027B0002100A216FF308531E4258B319E232100B4
:1027C000A2147408FA007508FB007808C3007908A1
:1027D000C4008A31A12220002008EE002108EF0069
:1027E000053084316E249231E4228A3112228C31F8
:1027F0005B242100A00020089431031D0E2CA2149C
:102800003510A21835148D31C5257408FA007508E5
:10281000FB0022008C120C169431222C2003031D85
:10282000202CA2103510A21835148D31C52576083C
:10283000FA007708FB0022000C128C169431222C2F
:10284000903188202100A2129431221E292C92312D
:10285000F42294312100221D2F2C8A3110222100D4
:10286000A2192311A21D2315A3152219231DA3119B
:102870009331A31DF32B2000DE30A0000130A10016
:102880009431A10B412C9431A00B3E2C8A3115229E
:1028900002308731FA2720002008F0002108F100DB
:1028A00094312100221E562C9331822371087B0221
:1028B0009431031D5D2C70087A0221002312031944
:1028C000632C0318231603307102031D692CFF309B
:1028D0007002A31203196E2C031CA3162317231ACC
:1028E000A31E231303307302031D782CFF307202E2
:1028F000A31303197D2C031CA3172414231BA31F4C
:102900002410241C8E2CF20A0319F30A7208C30047
:102910007308C4008A3117229431CA2C71087B02D3
:10292000031D942C70087A02A4100319992C031C1F
:10293000A41472087304241503192411A415A418EF
:10294000241DA411A41DB02CF203720A0319F30371
:102950007208C3007308C4008A3117229431CA2C4C
:1029600003307102031DB62CFF3070022412031DC8
:1029700003182416720A2000A000033073022004FA
:102980002100A4120319A4162413241EA41A241728
:10299000241B22118A3171222100A10094312000D0
:1029A0002018D52C2100A413D72C2100A417A41F74
:0E29B0002F2C02302102031D2F2C22112F2C60
:020000040001F9
:02000E008C095B
:02001000FF3EB1
:00000001FF
