:020000040000FA
:040000008331F82B25
:080008008331F62B8A00200071
:1000100035080D3E03188A0A82000034003400348B
:100020000034003400340034003400342F34003401
:100030000034003400340734003407340034003412
:1000400014347F3414347F341434003424342A3488
:100050007F342A3412340034623464340834133464
:100060002334003436344934553422345034003487
:1000700000340534033400340034003400341C34BC
:1000800022344134003400340034413422341C34EE
:1000900000340034143408343E340834143400344A
:1000A000083408343E340834083400340034003452
:1000B000A034603400340034083408340834083480
:1000C00008340034003460346034003400340034C8
:1000D0002034103408340434023400343E345134B3
:1000E000493445343E340034003442347F344034A3
:1000F00000340034423461345134493446340034DD
:100100002134413445344B34313400341834143400
:1001100012347F34103400342734453445344534A8
:10012000393400343C344A344934493430340034AE
:10013000013471340934053403340034363449341D
:100140004934493436340034063449344934293486
:100150001E34003400343634363400340034003475
:100160000034563436340034003400340834143447
:10017000223441340034003414341434143414342C
:10018000143400340034413422341434083400343C
:1001900002340134513409340634003432344934E1
:1001A000593451343E3400347C3412341134123416
:1001B0007C3400347F344934493449343634003493
:1001C0003E34413441344134223400347F344134AC
:1001D000413422341C3400347F34493449344934A6
:1001E000413400347F340934093409340134003493
:1001F0003E344134493449347A3400347F3408344D
:10020000083408347F340034003441347F344134BE
:10021000003400342034403441343F34013400345D
:100220007F34083414342234413400347F34403471
:1002300040344034403400347F3402340C340234CF
:100240007F3400347F340434083410347F34003475
:100250003E344134413441343E3400347F34093437
:1002600009340934063400343E34413451342134E5
:100270005E3400347F340934193429344634003470
:10028000463449344934493431340034013401347A
:100290007F340134013400343F344034403440343E
:1002A0003F3400341F342034403420341F340034B1
:1002B0003F344034383440343F34003463341434F1
:1002C0000834143463340034073408347034083488
:1002D00007340034613451344934453443340034F4
:1002E00000347F34413441340034003455342A34EE
:1002F00055342A34553400340034413441347F3489
:100300000034003404340234013402340434003440
:1003100040344034403440344034003400340134FC
:10032000023404340034003420345434543454340B
:10033000783400347F34483444344434383400341E
:10034000383444344434443420340034383444346D
:10035000443448347F3400343834543454345434BE
:100360001834003408347E34093401340234003443
:100370001834A434A434A4347C3400347F340834D6
:100380000434043478340034003444347D3440344C
:10039000003400344034803484347D3400340034FC
:1003A0007F34103428344434003400340034413471
:1003B0007F344034003400347C3404341834043442
:1003C000783400347C340834043404347834003411
:1003D000383444344434443438340034FC34243421
:1003E0002434243418340034183424342434183495
:1003F000FC3400347C3408340434043408340034CD
:1004000048345434543454342034003404343F34A5
:1004100044344034203400343C34403440342034BC
:100420007C3400341C342034403420341C340034F8
:100430003C344034303440343C3400344434283488
:1004400010342834443400341C34A034A034A03494
:100450007C3400344434643454344C3444340034F4
:100460000034063409340934063482073C345034ED
:100470007234653473347334203445344E34543418
:1004800045345234203474346F342034733474342B
:100490006F3470343E3482075234653474347534AA
:1004A00072346E34203474346F3420344D346134FB
:1004B00069346E3420344D3465346E3475348207BB
:1004C000523465347434753472346E342034743478
:1004D0006F3420344D34613469346E3420344D34FB
:1004E00065346E3475348207433475347234723433
:1004F00065346E347434203453346F34753472344C
:100500006334653420344D3465346E347534820779
:10051000433475347234723465346E347434203438
:1005200053346F34753472346334653420344D344D
:1005300065346E3475348207413464346A347534FA
:1005400073347434613462346C346534203443342D
:1005500075347234723465346E34743482074334C3
:1005600075347234723465346E34743420345334D8
:1005700069346E346B3420344D3465346E347534E4
:100580008207433475347234723465346E34743493
:100590002034533469346E346B3420344D34653434
:1005A0006E3475348207433461346C346934623498
:1005B00072346134743469346F346E3420344D34A1
:1005C00065346E3475348207433461346C34693475
:1005D000623472346134743469346F346E3420346C
:1005E0004D3465346E347534820744346534623476
:0E05F00075346734203449346E3466346F3409
:100600008207433461347034613463346934743440
:100610007934203428346D344134683429343A3400
:100620008207543469346D3465347234203428348C
:1006300068346F3475347234733429343A34820731
:10064000433475347234723465346E347434203407
:1006500028346D344134293420343A348207443408
:10066000413443342034763461346C347534653429
:100670002034693473343A34820743347534723425
:10068000723465346E347434203428346D3441341B
:1006900029343A3482075334653474342034763440
:1006A00061346C34753465342034693473343A34CD
:1006B0008207433475347234723465346E34743462
:1006C000203428343134413429343A3482074D34CB
:1006D0004134203466346134633474346F3472349A
:1006E0002034693473343A34820741344434433417
:1006F0002034763461346C34753465342034693494
:1007000073343A3482074D34613469346E342034A2
:100710004D3465346E347534820753345434413467
:1007200052345434453444348207533454344134BD
:100730005234543482072034203420348207203449
:1007400020342030B5000310AB0DAC0DAD0DAE0D57
:100750000310A30DA40DA50DA60D031CB72B270890
:10076000AB072808AC3D2908AD3D2A08AE3DB50BC6
:10077000A32B08002030B500A701A801A901AA01F8
:100780000310AF0DB00DB10DB20D0310A30DA40DEC
:10079000A50DA60DA70DA80DA90DAA0D2A082E02BC
:1007A000031DDC2B29082D02031DDC2B28082C023D
:1007B000031DDC2B27082B020319E02B0318EF2B5A
:1007C0002B08A7022C08031C2C0FA8022D08031CC1
:1007D0002D0FA9022E08031C2E0FAA022F14B50BF1
:1007E000C02B08008A002000370882008931882940
:1007F00087302100190570389900FC3099050330C5
:1008000024008C003B308E002100951323008C01C6
:100810008E0121009D019E019F0104302200900065
:10082000910104309400950120000630A000F830BA
:10083000A1006E30A2008431A20B1C2C8431A10BCC
:10084000192C8431A00B172C21002210412C251CBF
:10085000362C55303C008F00AA308F000F14210039
:100860002218342C8B1308008B17080022108B1BC6
:1008700022148B1355303C008F00AA308F000F10CC
:1008800008002510272412303D00A0001330A100DD
:10089000210025148431272421008E160E168E1572
:1008A0000C128C128431712C2100A5000530250218
:1008B000031D632C05302000D9000630DA00063015
:1008C000DB000830DC0021002508250A080005307F
:1008D0005902031D702C5008B500510880310628BC
:1008E0000034FF302000DD00DE01DF018030E00059
:1008F00087317E2F20002008B9005B086002BA0013
:100900005E083A02843103198A2C03188A2C5C0889
:10091000DF07DE015F08BC003908BD005E088531D5
:10092000DA2520005B08DE07080021000E148E1473
:100930002830240095002030960004309200940165
:100940000800240016142000D301D40110305302F3
:10095000A0002730540220045510031D5514D51053
:100960002400161CB62C20005518D5142000D51CC8
:10097000BF2CD30A0319D40A00000000A62C0800DB
:10098000240016152000C801C90110304802A0003B
:100990002730490220044A10031D4A14CA102400BB
:1009A000161DD52C20004A18CA142000CA1CDE2CA3
:1009B000C80A0319C90A00000000C52C080020005D
:1009C000CC004F1491114C08240091002000CD015F
:1009D000CE01911DED2CCF10EE2CCF1410304D0216
:1009E000A00027304E0220044F11031D4F15CF15D4
:1009F000CF184F1DCF118531CF1D052DCD0A0319FD
:100A0000CE0A000000008431E92C10304D02A00015
:100A100027304E022004031D0F2D4F10192D2400E6
:100A2000161B152D20004F14192D95129516200018
:100A30004F1020104F1820140800843195242000F6
:100A4000521086312F26AE3086314026D530863181
:100A50004026803086314026A830863140263F30FF
:100A600086314026A13086314026C8308631402666
:100A70002030863140260030863140264030863195
:100A80004026D330863140260030863140268D30D6
:100A900086314026143086314026DA3086314026B1
:100AA000123086314026813086314026AF30863183
:100AB0004026D93086314026253086314026DB302D
:100AC00086314026203086314026A43086314026AB
:100AD000A6308631402686313E268531AA25200063
:100AE000521086312F26AF308631402686313E2E79
:100AF0002000D600521086312F2621308631402624
:100B00007F3020005605D800863140267F30863160
:100B10004026223086314026073020005705D80075
:100B20008631402607308631402686313E26200019
:100B30005608DE005708A300A401A501A6015C0821
:100B4000A700A801A901AA018331A12320002B0835
:100B5000DF0008002000D701003078252000521463
:100B600086312F262100C201C60100308631402681
:100B70002100C60A803046028531031DB52DC20A08
:100B800008304202031DB42D86313E262000D701D5
:100B900000308531782D2100A500200052108631CB
:100BA0002F268130863140262100250886314026B7
:100BB00086313E2EBB005C08AB00AC01AD01AE013E
:100BC0003C08A300A401A501A6018331BA2320009B
:100BD0002F08C200D7003B0885317825203020003F
:100BE0003D02C000BE01BF014008C400C5018631FE
:100BF000012E5A08C200C3014208BE074308BF3D88
:100C0000C50A450844028531031DF92D5214863169
:100C10002F2620005A08C600C7018631242E3E0820
:100C2000D0003F08D100843167242000C1005D0856
:100C30008631031D1D2EFF30C106410840262000CD
:100C4000BE0A0319BF0AC70A470846028631031DB8
:100C50000F2EFF305D06C200402686313E2E8431C5
:100C6000A12478308431DF2486312000521C3B2EB1
:100C700040308431DF2C00308431DF2C8431C02CB3
:100C80002000CB008431DF2C6108E7006208E80017
:100C900067082200A000210068082200A1002100AE
:100CA000EB016E2E210065086B072000B7000030B5
:100CB000A100210066082000213DB800B8133808C3
:100CC0008331F2232000A00021005E082000B7003D
:100CD00021005F088331F2232100EB0A6B08220018
:100CE00020022000A00022002108200020048631DC
:100CF000031D522E080003102000E10DE20DE30D4C
:100D0000E40D0310610D2200C9002000620D2200D5
:100D1000CA002000630D2200CB002000640D2200D9
:100D2000CC000310C90DCA0DCB0DCC0D4908200015
:100D3000E10722004A082000E23D22004B08200083
:100D4000E33D22004C082000E43D08000130200073
:100D5000E100E201E301E4012200C201C30120003D
:100D6000640821006E02031DC52E200063082100C7
:100D70006D02031DC52E2000620821006C02031DB8
:100D8000C52E2000610821006B0222004410031DC3
:100D90000318441400304302031DD02E0A304202CF
:100DA000C4100319D52E031CC41444154418C41CC4
:100DB0004411441DE22E7B262200C20A0319C30AF5
:100DC0008631AF2E42084304031DE92E0130C200D4
:100DD000C301C203420A0319C30301302000E1002A
:100DE000E201E301E40122004208C5004308C60015
:100DF000C701C8018731012F7B262200C70A0319CA
:100E0000C80A470845022000A00022004808460200
:100E1000200020048631031DFC2E30302100EF001D
:100E20006E08200064028731031D262F21006D0803
:100E300020006302031D262F21006C08200062029F
:100E4000031D262F21006B082000610203192A2FA1
:100E50000318442F61082100EB0220006208FF0004
:100E60002100031C7F0FEC0220006308FF0021001B
:100E7000031C7F0FED0220006408FF002100031C0B
:100E80007F0FEE02EF0A102F21006F082000A00054
:100E9000210067082000B700210068088331F22391
:100EA0002200420843048631031DE92E08005E0833
:100EB000E1005F08E200E301E4015208E7005308A3
:100EC000E8006108EB006208EC006308ED006408CC
:100ED000EE008631A62ED200DA00DB01DC01DD0156
:100EE0004E08E7004F08E8005A08EB005B08EC00EA
:100EF0005C08ED005D08EE008631A62EF33024007C
:100F00001E0508389E00FC301E0501389E009E1705
:100F1000F0302A00100502389000111621000E1141
:100F20002A00911721000C1523000C15FC3021001C
:100F30001E0503389E001E118F301E0520389E00AE
:100F4000EA2FCE004E0D2000A000A00D7C30A005A1
:100F5000833021001D052000200421009D00601821
:100F6000B32F9E13B42F9E171D1420006508210077
:100F7000DA00DE01C52F20000530A0008731A00B6C
:100F8000BF2F000000002100DE0A5E085A02031D88
:100F9000BB2F9D149D1CCD2FCA2F1C08D1001B08F0
:100FA000D00020000730A0008731A00BD52F2100F2
:100FB0001D1050082000A000210051082000A100B1
:100FC00008002100C20060144208A12F0D3020004B
:100FD000E50008002B009201930110141113F33067
:100FE000110508389100FC30910591129117933149
:100FF0002C2B55309600AA30960095140000000066
:10100000080052108B1B52148B13500823009100C0
:10101000220051082300920015131516151587316B
:10102000F92788312200521817288B1308008B17D4
:10103000080050082300910022005108230092006C
:10104000151315140000000013082200D200080038
:10105000D200D3108B1BD3148B13500823009100A4
:10106000220051082300920022005208230093001E
:101070009401220053183F28230095124128230091
:1010800095161513151215158731F9278831220089
:10109000D3184C288B1308008B170800E70065084D
:1010A000E9006608EA000310660C2200CF00210068
:1010B000650C2200CE0004302000A00003102200A6
:1010C000CF0CCE0C2000A00B5E28031022004E0D8A
:1010D000A0004F0DA1000430FF000310A00DA10DD2
:1010E000FF0B6D2820082100E500220021082100C7
:1010F000E6002200CD01210065082200D000210079
:1011000066082200D10019202000B6002230840099
:101110000130850022004D08840720003608800039
:101120002100E50A0319E60A2200CD0A20304D020B
:101130008831031D7B281F3021006905E500E60189
:10114000223084000130850065088407670880002C
:1011500022002008D0002108D10001202200200810
:101160002100E500220021082100E6002200CD0137
:10117000210065082200D000210066082200D1006D
:10118000531422308400013085004D088407000884
:10119000883128202100E50A0319E60A2200CD0A39
:1011A00020304D028831031DB82820082100E500B9
:1011B000220021082100E6002200CD01210065085F
:1011C0002200D000210066082200D10053102230F6
:1011D0008400013085004D088407000888312820EC
:1011E0002100E50A0319E60A2200CD0A20304D024B
:1011F0008831031DDE28080080304007CA001F30F8
:10120000413DCB004A082200D00021004B082200BB
:10121000D10019202100C6000800E00080305A07E4
:10122000E1001F305B3DE2006108E5006208E60076
:10123000600888314E282908C0002A08C10088317A
:10124000FC202100AC0008003008BE003108BF00BF
:101250003E08C0003F08C1008831FC202100B900D1
:1012600001303007BE000030031801303107BF00E5
:101270003E08C0003F08C1008831FC202100BA00B0
:1012800008002908B0002A08B100242121003908EB
:10129000AC003A08AD002C082000A00021002D0869
:1012A0002000A10008004208D0004308D1005008E7
:1012B000DA005108DB004A080D2101302100420705
:1012C000D0000030031801304307D1005008DA0085
:1012D0005108DB004B0889310D29200018103F30E0
:1012E0009805CF30180510389800F0309600D830A7
:1012F00097006430FE00EA01EB01EC01ED012100F2
:10130000A21120001110210011148B170B170800D7
:101310002000111CB4291110F0309600D83097002D
:10132000FE037E08031DB4296430FE000130E6028E
:10133000031CE702031CE802031CE9022100A218B7
:10134000A9292000EA0A0319EB0A0319EC0A031978
:10135000ED0A20006608670468046904031DB429C7
:101360002100A215200018100900C000200018104C
:101370002100A2112000EA01EB01EC01ED012100A6
:1013800040080319F22920001110F0309600D830DF
:1013900097006430FE0021004008C200C301C40170
:1013A000C50142082000A300210043082000A4003A
:1013B000210044082000A500210045082000A600C7
:1013C0001030A7000E30A800A901AA018331A12383
:1013D00020002B08E6002C08E7002D08E8002E0866
:1013E000E90018140800200018102100A2110800BC
:1013F00042082B009200210043082B009300101498
:101400008A31101C042A002A08002000CA30A000DB
:10141000A330A1008A31A10B0B2A8A31A00B082A24
:1014200020000130A0008A31A00B142A0000000027
:10143000080020008E1A1F2A21004610212A2100B0
:10144000461420000E1A272A2100C610292A21003E
:10145000C61446154618C61C461120008E19332A9C
:101460002100C611352A2100C61546164619C61D8B
:101470004612461A3E2A20002010080020002014A0
:10148000080005228A3119228A31200020184B2AAF
:10149000210042104D2A210042144218522A0522EE
:1014A0008A31422A08002100461020008E1A612A43
:1014B00005228A3120008E1A782A2100C2014614A2
:1014C000782A0E1A6D2A05228A3120000E1A782AEF
:1014D00001302100C2004614782A8E19782A05228C
:1014E0008A3120008E19782A02302100C200461469
:1014F000210046187E2A20002010802A2000201477
:101500002100420808004208DA004308DB00DC0141
:10151000DD015A082000AB0021005B082000AC0070
:1015200021005C082000AD0021005D082000AE0015
:101530004030A3004230A4000F30A500A601833143
:10154000BA2320002F082100CA0020003008210003
:10155000CB00200031082100CC00200032082100FF
:10156000CD004A082000A00021004B082000A10067
:1015700008004008D2004108D300D401D501200062
:101580006E082100D60020006F082100D700D80186
:10159000D90152082000A300210053082000A40014
:1015A000210054082000A500210055082000A600B5
:1015B000210056082000A700210057082000A8009D
:1015C000210058082000A900210059082000AA0085
:1015D0008331A12320002B082100C60020002C0805
:1015E0002100C70020002D082100C80020002E087F
:1015F0002100C900E8302000AB000330AC00AD0191
:10160000AE01210046082000A30021004708200069
:10161000A400210048082000A5002100490820005E
:10162000A6008331BA2320002F082100C600200025
:1016300030082100C700200031082100C800200028
:1016400032082100C90046082000A00021004708F8
:101650002000A1000800C0004A1C312B2000DD0141
:10166000342BFF302000DD00210046082000D70089
:1016700021004208853178257A302100CE000430DF
:10168000CF00400887316B2FCA00501C4A2B200026
:10169000DD014D2BFF302000DD0021004E08200031
:1016A000D70021004A08853178257A302100D20000
:1016B0000430D3004208DE004308DF008731572F93
:1016C000D0005A1C662B2000DD01692BFF30200062
:1016D000DD00210052082000D7002100500885318C
:1016E00078257A302100DE000430DF004208E10076
:1016F0004308E2004A08E5004B08E6008631442E24
:101700002100A901AA0189314121200020082100DE
:10171000A500200021082100A600033026028B31FD
:10172000031D942BFF30250203199D2B031C9D2BB9
:10173000E830F8000330F900A62BA901AA0189318D
:10174000412120002008F8002108F9000230210082
:10175000A900AA0189314121200020082100A5000B
:10176000200021082100A600033026028B31031D32
:10177000BB2BFF3025020319C32B031CC32B643082
:10178000F400F501DA2B0230A900AA0189314121C8
:1017900020002008F4002108F50079028B31031D98
:1017A000D32B740878020319DA2B0318DA2B643070
:1017B000F400F50104302100A900AA01893141217A
:1017C000200020082100A500200021082100A600FB
:1017D000033026028B31031DEF2BFF302502031946
:1017E000F82B031CF82B6430F600F7018C310F2C1A
:1017F0000430A900AA018931412120002008F60007
:101800002108F70079028C31031D082C7608780234
:1018100003190F2C03180F2C6430F600F701063063
:101820002100A900AA0189311B212100A50018303F
:1018300025028C310319202C031C202CFC01262CA2
:101840000630A900AA0189311B21FC0007302100C4
:10185000A900AA0189311B212100A5001830250209
:101860008C310319372C031C372CFD01080007307D
:10187000A900AA0189311B21FD0008002100AE0149
:101880003E108531AA2512302100C200C3019C30D0
:10189000CA0002308038CB00D2015A1008308B3198
:1018A000602309302100C200C3018330CA00033025
:1018B0008038CB000130D2005A1023308B316023A6
:1018C0008D3121003E18922D1330C200C3018830A3
:1018D000CA0002308038CB000230D2005A100A30E1
:1018E0008B31602311302100C200C301C130CA0016
:1018F00002308038CB000330D2005A1011308B31C7
:10190000602310302100C200C301E430CA0002305D
:101910008038CB000430D2005A1014308B31602351
:1019200020006A086B046C046D048D310319142DBA
:101930000F302100C200C3010130CA0003308038DB
:10194000CB000630D2005A1000308B3160237A0869
:101950002100C0007B08C1008A31B9222000200884
:101960002100B000200021082100B100B201B30124
:1019700030082000A300210031082000A40021002D
:1019800032082000A500210033082000A6006A08C4
:10199000A7006B08A8006C08A9006D08AA00833195
:1019A000A12320002B082100A50020002C082100E5
:1019B000A60020002D082100A70020002E082100ED
:1019C000A80010302000AB000E30AC00AD01AE011D
:1019D000210025082000A300210026082000A400E3
:1019E000210027082000A500210028082000A600CB
:1019F0008331BA2320002F082100A50020003008E1
:101A00002100A600200031082100A7002000320894
:101A10002100A8002508C2002608C3000630CE0019
:101A200050105D308B31442321002E088D31031D71
:101A3000292D1330C200C3018830CA00023080381B
:101A4000CB000230D2005A140A308B3160238D3122
:101A50004E2D2E03031D3C2D1130C200C301C13099
:101A6000CA0002308038CB000330D2005A14113043
:101A70008B3160238D314E2D02302E02031D4E2DF1
:101A80001030C200C301E430CA0002308038CB00FD
:101A90000430D2005A1414308B3160238A3153221F
:101AA0002100AC008D3120002018592D21003E135B
:101AB0005B2D21003E173E1B5E2D4E2D8A314122AB
:101AC00021002C088D31031D792D2E08031D6C2D4E
:101AD0000230AE008C31602C2E03031D712DAE013F
:101AE000772D02302E02031D772D0130AE008C3190
:101AF000602C2C03031D8F2D2E08031D832D013018
:101B0000AE008C31602C2E03031D892D0230AE00F7
:101B10008D2D02302E020319AE018C31602C3E1443
:101B20008C31602C2E080800AC01B41034118531C2
:101B3000AA2512302100C200C3019C30CA00023025
:101B40008038CB00D2015A1008308B3160238D31A0
:101B50002100341CC12D7408A5007508A6007C085E
:101B6000AB001330C200C3017430CA0002308038A9
:101B7000CB000130D2005A1005308B3160238D31FB
:101B8000D52D7608A5007708A6007D08AB0011309A
:101B9000C200C301AF30CA0002308038CB00013030
:101BA000D2005A100B308B31602321002508C00071
:101BB0002608C1008A31B922200020082100AE0089
:101BC000200021082100AF002E08C2002F08C3000A
:101BD0000230CE0050105A308B3144235A3021004D
:101BE000C2000330C6004A102B088B312B239031E2
:101BF0002100B41809280E30C200C3012030CA00E9
:101C000003308038CB000230D2005A1003308B31C1
:101C100060230E302100C200C3011130CA0003301E
:101C20008038CB000330D2005A1003308B31602350
:101C300005302100C200C3019530CA00033080384E
:101C4000CB000430D2005A1032308B316023133075
:101C50002100C200C3014C30CA0002308038CB00E2
:101C60000530D2005A1005308B31602321002C083A
:101C70008E31031DF22E341D9B2E2508C000260830
:101C8000C1008A31B922200020082100AE002000C6
:101C900021082100AF002E08C2002F08C300023027
:101CA000CE0050145A308B314423FF302000DD0029
:101CB0007A302100DE000430DF000230E100E20172
:101CC0009F30E50003308038E600863144268A31B3
:101CD00053222100A9008E3120002018722E2100ED
:101CE000B412742E2100B416B41A772E672E290868
:101CF000031D892E26087902031D802E25087802EF
:101D00008D310319F72D031CF72DA50A0319A60A17
:101D1000F72D2903031D962E250826048D3103195E
:101D2000F72DA503250A0319A603F72D34118A31CF
:101D300041228D31F72D2508C0002608C1008A31C7
:101D4000B922200020082100AE0020002108210037
:101D5000AF002E08C2002F08C3000230CE00501082
:101D60005A308B3144237A302100DE000430DF000A
:101D70000230E100E2019F30E50003308038E600E8
:101D8000863144260E302100C200C3012030CA0033
:101D900003308038CB000230D2005A1403308B312C
:101DA00060238A3153222100A9008E31200020189F
:101DB000DC2E2100B511DE2E2100B515B519E12E5E
:101DC000D12E2908031DE72E0330AC00EE2E290387
:101DD000031DED2E0130AC00EE2E34158A31412268
:101DE0008D31F72D2C038F31031D7D2F341D372F9F
:101DF0005A30C2000330C6004A142B088B312B2303
:101E0000FF302000DD007A302100DE000430DF00EA
:101E10000230E100E2019F30E50003308038E60047
:101E2000863144268A3153222100A9008F312000B7
:101E300020181D2F210036101F2F210036143618B0
:101E4000222F122F2908031D2D2F18302B020319C2
:101E5000792F0318792FAB0A792F2903031D352F0A
:101E60002B080319792FAB03792F3411792F5A30AE
:101E7000C2000330C6004A102B088B312B237A3066
:101E80002100DE000430DF000230E100E2019F307B
:101E9000E50003308038E600863144260E3021000C
:101EA000C200C3011130CA0003308038CB000330B8
:101EB000D2005A1403308B3160238A31532221001F
:101EC000A9008F3120002018682F210036136A2FB7
:101ED00021003617361B6D2F5D2F2908031D722F29
:101EE000AC01792F2903031D782F0230AC00792F24
:101EF00034158A3141228D31F72D02302C02031D19
:101F0000D32F0530C200C3019530CA00033080389A
:101F1000CB000430D2005A1432308B3160238A3126
:101F200053222100A9008F31200020189A2F210070
:101F3000B7119C2F2100B715B7199F2F8F2F290894
:101F4000031DA52F0130AC00CF2F2903031DAB2F9C
:101F50000330AC00CF2F0730C200C3018D30CA0060
:101F600003308038CB000430D2005A102C308B3133
:101F7000602315302100C200C3013630CA00023090
:101F80008038CB000530D2005A1400308B316023EA
:101F900021002B088931B52121002215B4148A3182
:101FA00041229031072803302C029031031D07286D
:101FB0001330C200C3014C30CA0002308038CB005D
:101FC0000530D2005A1405308B3160238A315322F8
:101FD0002100A9008F3120002018F12F2100381096
:101FE000F32F210038143818F62FE62F29088F31E7
:101FF000031DFE2F0230AC009031052829039031DB
:10200000031D0428AC010528B4148A3141228D3106
:10201000F72D341C3228250874022000A00021006E
:102020002608750220002004031924282100250811
:10203000F4002608F5000230C200C3017408CA008B
:102040007508CB008931532121002B087C02903187
:10205000031959282B08FC000630DA00DB017C0844
:1020600089310D29250876022000A00021002608CC
:1020700077022000200403194B2821002508F600D0
:102080002608F7000430C200C3017608CA007708AA
:10209000CB008931532121002B087D029031031997
:1020A00059282B08FD000730DA00DB017D08893153
:1020B0000D290800B4013910B9103911A901AA017C
:1020C0002908C2002A08C3008931F8212100A5018E
:1020D000A60122000C128C128531AA257808210055
:1020E000AC007908AD001230C200C3019C30CA00B8
:1020F00002308038CB00D2015A1008308B31602377
:1021000010302100C200C301D330CA000230803831
:10211000CB000130D2005A1005308B316023923150
:1021200021003918372A0D30C200C3015930CA00C6
:1021300003308038CB000230D2005A1005308B318A
:10214000602313302100C200C3016030CA00023096
:102150008038CB000330D2005A1000308B3160231E
:1021600021002508C2002608C3000230CE0050100E
:102170005A308B314423210034089231031D002A48
:102180009131B91CBD2922000C1621003919B91250
:10219000391DB916033026029031031DD128FF30B6
:1021A000250239130319D628031C3917B917B91A90
:1021B000391FB91303302A02031DE028FF3029021A
:1021C0003A100319E528031C3A14BA14B91B3A1C37
:1021D000BA109131BA1C1729A90A0319AA0A2908A9
:1021E000C2002A08C3008931F8212000DE30A00097
:1021F0000130A1009031A10BFB289031A00BF828F1
:1022000002308731E127200020082100A5002000AE
:1022100021082100A6002D029131031D1129250856
:102220002C023911031D031C39159031C5282908CA
:10223000C2002A08C3008931F8212000DE30A00046
:102240000130A1009131A10B23299131A00B20294C
:1022500002308731E127200020082100A50020005E
:1022600021082100A6002508C2002608C30002306C
:10227000CE0050145A308B314423FF302000DD0053
:102280007A302100DE000430DF000330E100E2019B
:102290009B30E50003308038E600863144268A31E1
:1022A00053222100B0009131200020185A2921002A
:1022B000BA115C292100BA15BA195F294F293008D3
:1022C000031D832903302602031D6829FF302502E0
:1022D0003A1303196D29031C3A1703302A02031D10
:1022E0007329FF302902BA1303197829031CBA177E
:1022F0003B143A1BBA1F3B1090313B1C8F28A90A94
:102300000319AA0A8F283003031D9C2925082604D7
:102310003B1503193B1129082A04BB150319BB11EE
:102320003B163B19BB1D3B1290313B1E8F28A90366
:10233000290A0319AA038F28B91022000C122100C0
:102340002508AC002608AD002C08C2002D08C300EB
:102350008A31832220002008EE002108EF002100AE
:102360003911A501A601A901AA01C201C301893140
:10237000F8218A31412290318F287A30DE000430F2
:10238000DF000330E100E2019B30E50003308038DC
:10239000E600863144260D302100C200C3015930C9
:1023A000CA0003308038CB000230D2005A14053006
:1023B0008B3160238A3153222100B00091312000FB
:1023C0002018E5292100BB12E7292100BB16BB1A02
:1023D000EA29DA293008BB17031DBB1330033C1070
:1023E00003193C14BC10BB1F3C18BC14BC1CFB29BB
:1023F0000130B400FC29B9148A31412290318F2870
:1024000034039031031D8F281330C200C3016030A4
:10241000CA0002308038CB000330D2005A1400309A
:102420008B3160238A3153222100B0009231200089
:1024300020181D2A2100BC111F2A2100BC15BC191F
:10244000222A122A3008BC16031DBC1230033C138A
:1024500003193C17BC13BC1E3C1BBC17BC1F322A03
:10246000B401332A39148A31412290318F28C201B4
:10247000C3018931F82122000C1221002C087802B6
:102480002000A00021002D087902200020049231B4
:102490000319572A21002C08F8002D08F900C20161
:1024A000C3017808CA007908CB0089315329080094
:1024B00022000C128C12210022118931F321F20129
:1024C000F30172082100C2007308C3008931F829A2
:1024D0008531AA250A302100C200C301F530CA00A7
:1024E00002308038CB00D2015A100D308B3160237E
:1024F0000D302100C200C3013D30CA0003308038D6
:10250000CB000230D2005A1000308B3160237A08A1
:102510002100C0007B08C1008A31B92220002008B8
:102520002100A500200021082100A6007A30D20059
:102530000430D3002508DE002608DF008731572746
:102540000D302100C200C3014B30CA000330803877
:10255000CB000430D2005A1000308B3160237A3027
:102560002100D2000430D3007A08DE007B08DF00AF
:10257000873157270D302100C200C3017530CA00D2
:1025800003308038CB000530D2005A1000308B3138
:1025900060230D302100C200C3012F30CA00033078
:1025A0008038CB000630D2005A1000308B316023C7
:1025B0000D302100C200C3016730CA0003308038EB
:1025C000CB000730D2005A1000308B3160237A30B4
:1025D0002100D2000430D30020006E082100DE006C
:1025E00020006F082100DF008731572F05302000C1
:1025F000D7004E30853178257A302100D200043062
:10260000D3007008DE007108DF00873157272030C3
:102610002000A00084317A2420302000A0008431E2
:102620007A2406302000D7004E30853178257A3064
:102630002100D2000430D3007208DE007308DF00EE
:102640008731572720302000A00084317A242030A1
:102650002000A00084317A2C85311D258731E627A2
:1026600089316D21210022128A3153222100A100DB
:102670009331200020183F2B2100A212412B210072
:10268000A216A21E4A2B02302102031D4A2B22163B
:102690008A314122FF308531CB258B3180232100C7
:1026A000A2147408FA007508FB007808C2007908C3
:1026B000C3008A31832220002008EE002108EF00A9
:1026C000053084315424923158228C313E2421002B
:1026D000A00020089331031D7C2BA2143410A218F3
:1026E00034148D3194257408FA007508FB0022001B
:1026F0008C120C169331902B2003031D8E2BA210ED
:102700003410A21834148D3194257608FA00770815
:10271000FB0022000C128C169331902B90315A2022
:1027200093312100221E962B923168222100A2199A
:10273000A310A21DA31423152219A31C2311933146
:10274000231D632B2000DE30A0000130A100933157
:10275000A10BA82B9331A00BA52B02308731E127C9
:1027600020002008F0002108F10093312100221EF2
:10277000BB2B9231F62271087B029331031DC22BD1
:1027800070087A022100A3110319C82B0318A3159E
:1027900003307102031DCE2BFF3070022312031988
:1027A000D32B031C2316A316A319231EA312033035
:1027B0007302031DDD2BFF30720223130319E22B7A
:1027C000031C2317A317A31A231FA313A31FF32B61
:1027D000F20A0319F30A7208C2007308C3008931B0
:1027E000F8219431302C71087B02031DF92B7008FD
:1027F0007A0224100319FE2B031C2414720873049C
:10280000A4140319A41024152418A41C2411943111
:10281000241D162CF203720A0319F3037208C20076
:102820007308C3008931F8219431302C03307102D0
:10283000031D1C2CFF307002A411031D0318A415E6
:10284000720A2000A0000330730220042100241229
:1028500003192416A412A41D241AA416A41A2211C2
:102860008A3153222100A1009431200020183B2CF2
:10287000210024133D2C210024179331241F962B73
:0C28800002302102031D962B2211962B22
:020000040001F9
:02000E00840963
:02001000FF3EB1
:00000001FF
